{"abi":[{"type":"function","name":"adminIsPaused","inputs":[{"name":"_callReply","type":"bool","internalType":"bool"}],"outputs":[{"name":"messageId","type":"bytes32","internalType":"bytes32"}],"stateMutability":"nonpayable"},{"type":"function","name":"adminOwner","inputs":[{"name":"_callReply","type":"bool","internalType":"bool"}],"outputs":[{"name":"messageId","type":"bytes32","internalType":"bytes32"}],"stateMutability":"nonpayable"},{"type":"function","name":"adminPause","inputs":[{"name":"_callReply","type":"bool","internalType":"bool"}],"outputs":[{"name":"messageId","type":"bytes32","internalType":"bytes32"}],"stateMutability":"nonpayable"},{"type":"function","name":"adminUnpause","inputs":[{"name":"_callReply","type":"bool","internalType":"bool"}],"outputs":[{"name":"messageId","type":"bytes32","internalType":"bytes32"}],"stateMutability":"nonpayable"},{"type":"function","name":"create","inputs":[{"name":"_callReply","type":"bool","internalType":"bool"}],"outputs":[{"name":"messageId","type":"bytes32","internalType":"bytes32"}],"stateMutability":"nonpayable"},{"type":"function","name":"vaultBalanceOf","inputs":[{"name":"_callReply","type":"bool","internalType":"bool"},{"name":"account","type":"address","internalType":"address"}],"outputs":[{"name":"messageId","type":"bytes32","internalType":"bytes32"}],"stateMutability":"nonpayable"},{"type":"function","name":"vaultDeposit","inputs":[{"name":"_callReply","type":"bool","internalType":"bool"}],"outputs":[{"name":"messageId","type":"bytes32","internalType":"bytes32"}],"stateMutability":"payable"},{"type":"function","name":"vaultTotalBalance","inputs":[{"name":"_callReply","type":"bool","internalType":"bool"}],"outputs":[{"name":"messageId","type":"bytes32","internalType":"bytes32"}],"stateMutability":"nonpayable"},{"type":"function","name":"vaultWithdraw","inputs":[{"name":"_callReply","type":"bool","internalType":"bool"},{"name":"amount","type":"uint128","internalType":"uint128"}],"outputs":[{"name":"messageId","type":"bytes32","internalType":"bytes32"}],"stateMutability":"nonpayable"},{"type":"event","name":"Deposited","inputs":[{"name":"","type":"uint8[32]","indexed":false,"internalType":"uint8[32]"},{"name":"","type":"uint128","indexed":false,"internalType":"uint128"},{"name":"","type":"uint128","indexed":false,"internalType":"uint128"}],"anonymous":false},{"type":"event","name":"Paused","inputs":[{"name":"","type":"uint8[32]","indexed":false,"internalType":"uint8[32]"}],"anonymous":false},{"type":"event","name":"Unpaused","inputs":[{"name":"","type":"uint8[32]","indexed":false,"internalType":"uint8[32]"}],"anonymous":false},{"type":"event","name":"Withdrawn","inputs":[{"name":"","type":"uint8[32]","indexed":false,"internalType":"uint8[32]"},{"name":"","type":"uint128","indexed":false,"internalType":"uint128"},{"name":"","type":"uint128","indexed":false,"internalType":"uint128"}],"anonymous":false}],"bytecode":{"object":"0x6080604052348015600e575f5ffd5b506104b78061001c5f395ff3fe608060405260043610610085575f3560e01c8063776ddfd711610058578063776ddfd714610179578063b87b6efb146101b5578063cf953901146101f1578063db5a4ce61461022d578063f70c83ce1461026957610085565b80630daa9e9c14610089578063491f332f146100c5578063613e6b071461010157806374b1748b1461013d575b5f5ffd5b348015610094575f5ffd5b506100af60048036038101906100aa919061030a565b610299565b6040516100bc919061034d565b60405180910390f35b3480156100d0575f5ffd5b506100eb60048036038101906100e6919061030a565b61029f565b6040516100f8919061034d565b60405180910390f35b34801561010c575f5ffd5b506101276004803603810190610122919061030a565b6102a5565b604051610134919061034d565b60405180910390f35b348015610148575f5ffd5b50610163600480360381019061015e919061030a565b6102ab565b604051610170919061034d565b60405180910390f35b348015610184575f5ffd5b5061019f600480360381019061019a91906103ab565b6102b1565b6040516101ac919061034d565b60405180910390f35b3480156101c0575f5ffd5b506101db60048036038101906101d69190610443565b6102b8565b6040516101e8919061034d565b60405180910390f35b3480156101fc575f5ffd5b506102176004803603810190610212919061030a565b6102bf565b604051610224919061034d565b60405180910390f35b348015610238575f5ffd5b50610253600480360381019061024e919061030a565b6102c5565b604051610260919061034d565b60405180910390f35b610283600480360381019061027e919061030a565b6102cb565b604051610290919061034d565b60405180910390f35b5f919050565b5f919050565b5f919050565b5f919050565b5f92915050565b5f92915050565b5f919050565b5f919050565b5f919050565b5f5ffd5b5f8115159050919050565b6102e9816102d5565b81146102f3575f5ffd5b50565b5f81359050610304816102e0565b92915050565b5f6020828403121561031f5761031e6102d1565b5b5f61032c848285016102f6565b91505092915050565b5f819050919050565b61034781610335565b82525050565b5f6020820190506103605f83018461033e565b92915050565b5f6fffffffffffffffffffffffffffffffff82169050919050565b61038a81610366565b8114610394575f5ffd5b50565b5f813590506103a581610381565b92915050565b5f5f604083850312156103c1576103c06102d1565b5b5f6103ce858286016102f6565b92505060206103df85828601610397565b9150509250929050565b5f73ffffffffffffffffffffffffffffffffffffffff82169050919050565b5f610412826103e9565b9050919050565b61042281610408565b811461042c575f5ffd5b50565b5f8135905061043d81610419565b92915050565b5f5f60408385031215610459576104586102d1565b5b5f610466858286016102f6565b92505060206104778582860161042f565b915050925092905056fea26469706673582212205e893c83e937d457dc7097e28faff225c338e7d3a0749a558ea495b7b70aa64664736f6c63430008210033","linkReferences":{}},"methodIdentifiers":{"adminIsPaused(bool)":"cf953901","adminOwner(bool)":"613e6b07","adminPause(bool)":"0daa9e9c","adminUnpause(bool)":"74b1748b","create(bool)":"db5a4ce6","vaultBalanceOf(bool,address)":"b87b6efb","vaultDeposit(bool)":"f70c83ce","vaultTotalBalance(bool)":"491f332f","vaultWithdraw(bool,uint128)":"776ddfd7"},"id":0}