{"abi":[{"type":"constructor","inputs":[{"name":"_varaEthProgram","type":"address","internalType":"contract IVaultApp"}],"stateMutability":"nonpayable"},{"type":"function","name":"VARA_ETH_PROGRAM","inputs":[],"outputs":[{"name":"","type":"address","internalType":"contract IVaultApp"}],"stateMutability":"view"},{"type":"function","name":"onErrorReply","inputs":[{"name":"messageId","type":"bytes32","internalType":"bytes32"},{"name":"payload","type":"bytes","internalType":"bytes"},{"name":"replyCode","type":"bytes4","internalType":"bytes4"}],"outputs":[],"stateMutability":"payable"},{"type":"function","name":"replyOn_adminIsPaused","inputs":[{"name":"messageId","type":"bytes32","internalType":"bytes32"},{"name":"reply","type":"bool","internalType":"bool"}],"outputs":[],"stateMutability":"nonpayable"},{"type":"function","name":"replyOn_adminOwner","inputs":[{"name":"messageId","type":"bytes32","internalType":"bytes32"},{"name":"reply","type":"address","internalType":"address"}],"outputs":[],"stateMutability":"nonpayable"},{"type":"function","name":"replyOn_adminPause","inputs":[{"name":"messageId","type":"bytes32","internalType":"bytes32"}],"outputs":[],"stateMutability":"nonpayable"},{"type":"function","name":"replyOn_adminUnpause","inputs":[{"name":"messageId","type":"bytes32","internalType":"bytes32"}],"outputs":[],"stateMutability":"nonpayable"},{"type":"function","name":"replyOn_create","inputs":[{"name":"messageId","type":"bytes32","internalType":"bytes32"}],"outputs":[],"stateMutability":"nonpayable"},{"type":"function","name":"replyOn_vaultBalanceOf","inputs":[{"name":"messageId","type":"bytes32","internalType":"bytes32"},{"name":"reply","type":"uint128","internalType":"uint128"}],"outputs":[],"stateMutability":"nonpayable"},{"type":"function","name":"replyOn_vaultDeposit","inputs":[{"name":"messageId","type":"bytes32","internalType":"bytes32"},{"name":"reply","type":"uint128","internalType":"uint128"}],"outputs":[],"stateMutability":"nonpayable"},{"type":"function","name":"replyOn_vaultTotalBalance","inputs":[{"name":"messageId","type":"bytes32","internalType":"bytes32"},{"name":"reply","type":"uint128","internalType":"uint128"}],"outputs":[],"stateMutability":"nonpayable"},{"type":"function","name":"replyOn_vaultWithdraw","inputs":[{"name":"messageId","type":"bytes32","internalType":"bytes32"}],"outputs":[],"stateMutability":"payable"},{"type":"error","name":"UnauthorizedCaller","inputs":[]}],"bytecode":{"object":"0x60a060405234801561000f575f5ffd5b5060405161084b38038061084b833981810160405281019061003191906100da565b8073ffffffffffffffffffffffffffffffffffffffff1660808173ffffffffffffffffffffffffffffffffffffffff168152505050610105565b5f5ffd5b5f73ffffffffffffffffffffffffffffffffffffffff82169050919050565b5f6100988261006f565b9050919050565b5f6100a98261008e565b9050919050565b6100b98161009f565b81146100c3575f5ffd5b50565b5f815190506100d4816100b0565b92915050565b5f602082840312156100ef576100ee61006b565b5b5f6100fc848285016100c6565b91505092915050565b6080516107276101245f395f81816102a201526102dd01526107275ff3fe60806040526004361061009b575f3560e01c8063bd0dc83611610063578063bd0dc8361461014f578063bed65aad14610177578063c5bbf0841461019f578063dab506b2146101c7578063f2753a35146101f1578063f573c27e146102195761009b565b806331fdf58a1461009f5780633af10e66146100c75780634a646c7f146100ef578063a131761d1461010b578063ad0ddb6f14610127575b5f5ffd5b3480156100aa575f5ffd5b506100c560048036038101906100c091906103e2565b610241565b005b3480156100d2575f5ffd5b506100ed60048036038101906100e891906103e2565b61024d565b005b610109600480360381019061010491906104d6565b610259565b005b61012560048036038101906101209190610547565b610267565b005b348015610132575f5ffd5b5061014d600480360381019061014891906105cc565b610272565b005b34801561015a575f5ffd5b50610175600480360381019061017091906103e2565b61027e565b005b348015610182575f5ffd5b5061019d60048036038101906101989190610547565b61028a565b005b3480156101aa575f5ffd5b506101c560048036038101906101c09190610547565b610295565b005b3480156101d2575f5ffd5b506101db6102a0565b6040516101e89190610665565b60405180910390f35b3480156101fc575f5ffd5b50610217600480360381019061021291906106b3565b6102c4565b005b348015610224575f5ffd5b5061023f600480360381019061023a9190610547565b6102d0565b005b6102496102db565b5050565b6102556102db565b5050565b6102616102db565b50505050565b61026f6102db565b50565b61027a6102db565b5050565b6102866102db565b5050565b6102926102db565b50565b61029d6102db565b50565b7f000000000000000000000000000000000000000000000000000000000000000081565b6102cc6102db565b5050565b6102d86102db565b50565b7f000000000000000000000000000000000000000000000000000000000000000073ffffffffffffffffffffffffffffffffffffffff163373ffffffffffffffffffffffffffffffffffffffff1614610360576040517f5c427cd900000000000000000000000000000000000000000000000000000000815260040160405180910390fd5b565b5f5ffd5b5f5ffd5b5f819050919050565b61037c8161036a565b8114610386575f5ffd5b50565b5f8135905061039781610373565b92915050565b5f6fffffffffffffffffffffffffffffffff82169050919050565b6103c18161039d565b81146103cb575f5ffd5b50565b5f813590506103dc816103b8565b92915050565b5f5f604083850312156103f8576103f7610362565b5b5f61040585828601610389565b9250506020610416858286016103ce565b9150509250929050565b5f5ffd5b5f5ffd5b5f5ffd5b5f5f83601f84011261044157610440610420565b5b8235905067ffffffffffffffff81111561045e5761045d610424565b5b60208301915083600182028301111561047a57610479610428565b5b9250929050565b5f7fffffffff0000000000000000000000000000000000000000000000000000000082169050919050565b6104b581610481565b81146104bf575f5ffd5b50565b5f813590506104d0816104ac565b92915050565b5f5f5f5f606085870312156104ee576104ed610362565b5b5f6104fb87828801610389565b945050602085013567ffffffffffffffff81111561051c5761051b610366565b5b6105288782880161042c565b9350935050604061053b878288016104c2565b91505092959194509250565b5f6020828403121561055c5761055b610362565b5b5f61056984828501610389565b91505092915050565b5f73ffffffffffffffffffffffffffffffffffffffff82169050919050565b5f61059b82610572565b9050919050565b6105ab81610591565b81146105b5575f5ffd5b50565b5f813590506105c6816105a2565b92915050565b5f5f604083850312156105e2576105e1610362565b5b5f6105ef85828601610389565b9250506020610600858286016105b8565b9150509250929050565b5f819050919050565b5f61062d61062861062384610572565b61060a565b610572565b9050919050565b5f61063e82610613565b9050919050565b5f61064f82610634565b9050919050565b61065f81610645565b82525050565b5f6020820190506106785f830184610656565b92915050565b5f8115159050919050565b6106928161067e565b811461069c575f5ffd5b50565b5f813590506106ad81610689565b92915050565b5f5f604083850312156106c9576106c8610362565b5b5f6106d685828601610389565b92505060206106e78582860161069f565b915050925092905056fea2646970667358221220da3bbf32d0a6f9e8c43253fdea8ccba676322ac0a8366d84cd09e6132739dea164736f6c63430008210033","linkReferences":{}},"methodIdentifiers":{"VARA_ETH_PROGRAM()":"dab506b2","onErrorReply(bytes32,bytes,bytes4)":"4a646c7f","replyOn_adminIsPaused(bytes32,bool)":"f2753a35","replyOn_adminOwner(bytes32,address)":"ad0ddb6f","replyOn_adminPause(bytes32)":"bed65aad","replyOn_adminUnpause(bytes32)":"f573c27e","replyOn_create(bytes32)":"c5bbf084","replyOn_vaultBalanceOf(bytes32,uint128)":"3af10e66","replyOn_vaultDeposit(bytes32,uint128)":"bd0dc836","replyOn_vaultTotalBalance(bytes32,uint128)":"31fdf58a","replyOn_vaultWithdraw(bytes32)":"a131761d"},"id":0}